{
  "contractName": "ItemManager",
  "abi": [
    {
      "anonymous": false,
      "inputs": [
        {
          "indexed": false,
          "internalType": "uint256",
          "name": "itemindex",
          "type": "uint256"
        },
        {
          "indexed": false,
          "internalType": "uint256",
          "name": "_step",
          "type": "uint256"
        },
        {
          "indexed": false,
          "internalType": "address",
          "name": "itemAddress",
          "type": "address"
        }
      ],
      "name": "SupplyChainStep",
      "type": "event"
    },
    {
      "inputs": [],
      "name": "isOwner",
      "outputs": [
        {
          "internalType": "bool",
          "name": "",
          "type": "bool"
        }
      ],
      "stateMutability": "view",
      "type": "function",
      "constant": true
    },
    {
      "inputs": [
        {
          "internalType": "uint256",
          "name": "",
          "type": "uint256"
        }
      ],
      "name": "items",
      "outputs": [
        {
          "internalType": "contract Item",
          "name": "_item",
          "type": "address"
        },
        {
          "internalType": "string",
          "name": "identifier",
          "type": "string"
        },
        {
          "internalType": "uint256",
          "name": "itemPrice",
          "type": "uint256"
        },
        {
          "internalType": "enum ItemManager.SupplyChainState",
          "name": "state",
          "type": "uint8"
        }
      ],
      "stateMutability": "view",
      "type": "function",
      "constant": true
    },
    {
      "inputs": [
        {
          "internalType": "string",
          "name": "name",
          "type": "string"
        },
        {
          "internalType": "uint256",
          "name": "itemPrice",
          "type": "uint256"
        }
      ],
      "name": "createItem",
      "outputs": [],
      "stateMutability": "nonpayable",
      "type": "function"
    },
    {
      "inputs": [
        {
          "internalType": "uint256",
          "name": "itemIndex",
          "type": "uint256"
        }
      ],
      "name": "triggerPayment",
      "outputs": [],
      "stateMutability": "payable",
      "type": "function",
      "payable": true
    },
    {
      "inputs": [
        {
          "internalType": "uint256",
          "name": "itemIndex",
          "type": "uint256"
        }
      ],
      "name": "triggerDelivery",
      "outputs": [],
      "stateMutability": "nonpayable",
      "type": "function"
    }
  ],
  "bytecode": "0x608060405234801561001057600080fd5b503373ffffffffffffffffffffffffffffffffffffffff1660008054906101000a905050506118f1806100446000396000f3fe608060405260043610620000505760003560e01c8063800fb83f14620000555780638c55174214620000755780638f32d59b14620000a3578063bfb231d214620000d3578063cd31831e146200011a575b600080fd5b6200007360048036038101906200006d919062000b03565b62000148565b005b3480156200008257600080fd5b50620000a160048036038101906200009b919062000aa9565b620003b5565b005b348015620000b057600080fd5b50620000bb620005bf565b604051620000ca919062000c4b565b60405180910390f35b348015620000e057600080fd5b50620000ff6004803603810190620000f9919062000b03565b62000616565b60405162000111949392919062000ca5565b60405180910390f35b3480156200012757600080fd5b5062000146600480360381019062000140919062000b03565b62000703565b005b34600160008381526020019081526020016000206002015414620001a3576040517f08c379a00000000000000000000000000000000000000000000000000000000081526004016200019a9062000d1b565b60405180910390fd5b60006002811115620001de577f4e487b7100000000000000000000000000000000000000000000000000000000600052602160045260246000fd5b6001600083815260200190815260200160002060030160009054906101000a900460ff1660028111156200023b577f4e487b7100000000000000000000000000000000000000000000000000000000600052602160045260246000fd5b146200027e576040517f08c379a0000000000000000000000000000000000000000000000000000000008152600401620002759062000d3d565b60405180910390fd5b600180600083815260200190815260200160002060030160006101000a81548160ff02191690836002811115620002de577f4e487b7100000000000000000000000000000000000000000000000000000000600052602160045260246000fd5b02179055507fa4035636e99f06b7651a604c1019fa4e8779fe68ef27eeb74dff2de348f6199b816001600084815260200190815260200160002060030160009054906101000a900460ff16600281111562000362577f4e487b7100000000000000000000000000000000000000000000000000000000600052602160045260246000fd5b6001600085815260200190815260200160002060000160009054906101000a900473ffffffffffffffffffffffffffffffffffffffff16604051620003aa9392919062000d5f565b60405180910390a150565b60003082600254604051620003ca9062000962565b620003d89392919062000c68565b604051809103906000f080158015620003f5573d6000803e3d6000fd5b5090508060016000600254815260200190815260200160002060000160006101000a81548173ffffffffffffffffffffffffffffffffffffffff021916908373ffffffffffffffffffffffffffffffffffffffff1602179055508260016000600254815260200190815260200160002060010190805190602001906200047d92919062000970565b508160016000600254815260200190815260200160002060020181905550600060016000600254815260200190815260200160002060030160006101000a81548160ff02191690836002811115620004fe577f4e487b7100000000000000000000000000000000000000000000000000000000600052602160045260246000fd5b02179055507fa4035636e99f06b7651a604c1019fa4e8779fe68ef27eeb74dff2de348f6199b60025460016000600254815260200190815260200160002060030160009054906101000a900460ff16600281111562000586577f4e487b7100000000000000000000000000000000000000000000000000000000600052602160045260246000fd5b83604051620005989392919062000d5f565b60405180910390a160026000815480929190620005b59062000f8b565b9190505550505050565b60008060009054906101000a900473ffffffffffffffffffffffffffffffffffffffff1673ffffffffffffffffffffffffffffffffffffffff163373ffffffffffffffffffffffffffffffffffffffff1614905090565b60016020528060005260406000206000915090508060000160009054906101000a900473ffffffffffffffffffffffffffffffffffffffff1690806001018054620006619062000f1f565b80601f01602080910402602001604051908101604052809291908181526020018280546200068f9062000f1f565b8015620006e05780601f10620006b457610100808354040283529160200191620006e0565b820191906000526020600020905b815481529060010190602001808311620006c257829003601f168201915b5050505050908060020154908060030160009054906101000a900460ff16905084565b6200070d620005bf565b6200074f576040517f08c379a0000000000000000000000000000000000000000000000000000000008152600401620007469062000cf9565b60405180910390fd5b600160028111156200078a577f4e487b7100000000000000000000000000000000000000000000000000000000600052602160045260246000fd5b6001600083815260200190815260200160002060030160009054906101000a900460ff166002811115620007e7577f4e487b7100000000000000000000000000000000000000000000000000000000600052602160045260246000fd5b146200082a576040517f08c379a0000000000000000000000000000000000000000000000000000000008152600401620008219062000d3d565b60405180910390fd5b60026001600083815260200190815260200160002060030160006101000a81548160ff021916908360028111156200088b577f4e487b7100000000000000000000000000000000000000000000000000000000600052602160045260246000fd5b02179055507fa4035636e99f06b7651a604c1019fa4e8779fe68ef27eeb74dff2de348f6199b816001600084815260200190815260200160002060030160009054906101000a900460ff1660028111156200090f577f4e487b7100000000000000000000000000000000000000000000000000000000600052602160045260246000fd5b6001600085815260200190815260200160002060000160009054906101000a900473ffffffffffffffffffffffffffffffffffffffff16604051620009579392919062000d5f565b60405180910390a150565b610769806200115383390190565b8280546200097e9062000f1f565b90600052602060002090601f016020900481019282620009a25760008555620009ee565b82601f10620009bd57805160ff1916838001178555620009ee565b82800160010185558215620009ee579182015b82811115620009ed578251825591602001919060010190620009d0565b5b509050620009fd919062000a01565b5090565b5b8082111562000a1c57600081600090555060010162000a02565b5090565b600062000a3762000a318462000dc5565b62000d9c565b90508281526020810184848401111562000a5057600080fd5b62000a5d84828562000eda565b509392505050565b600082601f83011262000a7757600080fd5b813562000a8984826020860162000a20565b91505092915050565b60008135905062000aa38162001138565b92915050565b6000806040838503121562000abd57600080fd5b600083013567ffffffffffffffff81111562000ad857600080fd5b62000ae68582860162000a65565b925050602062000af98582860162000a92565b9150509250929050565b60006020828403121562000b1657600080fd5b600062000b268482850162000a92565b91505092915050565b62000b3a8162000e17565b82525050565b62000b4b8162000e2b565b82525050565b62000b5c8162000e76565b82525050565b62000b6d8162000e9e565b82525050565b62000b7e8162000ec6565b82525050565b600062000b918262000dfb565b62000b9d818562000e06565b935062000baf81856020860162000ee9565b62000bba8162001095565b840191505092915050565b600062000bd460118362000e06565b915062000be182620010a6565b602082019050919050565b600062000bfb601b8362000e06565b915062000c0882620010cf565b602082019050919050565b600062000c22601c8362000e06565b915062000c2f82620010f8565b602082019050919050565b62000c458162000e6c565b82525050565b600060208201905062000c62600083018462000b40565b92915050565b600060608201905062000c7f600083018662000b51565b62000c8e602083018562000c3a565b62000c9d604083018462000c3a565b949350505050565b600060808201905062000cbc600083018762000b62565b818103602083015262000cd0818662000b84565b905062000ce1604083018562000c3a565b62000cf0606083018462000b73565b95945050505050565b6000602082019050818103600083015262000d148162000bc5565b9050919050565b6000602082019050818103600083015262000d368162000bec565b9050919050565b6000602082019050818103600083015262000d588162000c13565b9050919050565b600060608201905062000d76600083018662000c3a565b62000d85602083018562000c3a565b62000d94604083018462000b2f565b949350505050565b600062000da862000dbb565b905062000db6828262000f55565b919050565b6000604051905090565b600067ffffffffffffffff82111562000de35762000de262001066565b5b62000dee8262001095565b9050602081019050919050565b600081519050919050565b600082825260208201905092915050565b600062000e248262000e4c565b9050919050565b60008115159050919050565b600081905062000e478262001121565b919050565b600073ffffffffffffffffffffffffffffffffffffffff82169050919050565b6000819050919050565b600062000e838262000e8a565b9050919050565b600062000e978262000e4c565b9050919050565b600062000eab8262000eb2565b9050919050565b600062000ebf8262000e4c565b9050919050565b600062000ed38262000e37565b9050919050565b82818337600083830152505050565b60005b8381101562000f0957808201518184015260208101905062000eec565b8381111562000f19576000848401525b50505050565b6000600282049050600182168062000f3857607f821691505b6020821081141562000f4f5762000f4e62001037565b5b50919050565b62000f608262001095565b810181811067ffffffffffffffff8211171562000f825762000f8162001066565b5b80604052505050565b600062000f988262000e6c565b91507fffffffffffffffffffffffffffffffffffffffffffffffffffffffffffffffff82141562000fce5762000fcd62000fd9565b5b600182019050919050565b7f4e487b7100000000000000000000000000000000000000000000000000000000600052601160045260246000fd5b7f4e487b7100000000000000000000000000000000000000000000000000000000600052602160045260246000fd5b7f4e487b7100000000000000000000000000000000000000000000000000000000600052602260045260246000fd5b7f4e487b7100000000000000000000000000000000000000000000000000000000600052604160045260246000fd5b6000601f19601f8301169050919050565b7f796f7520617265206e6f74206f776e6572000000000000000000000000000000600082015250565b7f4f6e6c792066756c6c205061796d656e74732061636365707465640000000000600082015250565b7f4974656d206973206675727468757220696e2074686520636861696e00000000600082015250565b6003811062001135576200113462001008565b5b50565b620011438162000e6c565b81146200114f57600080fd5b5056fe608060405234801561001057600080fd5b50604051610769380380610769833981810160405281019061003291906100b3565b816001819055508060028190555082600360006101000a81548173ffffffffffffffffffffffffffffffffffffffff021916908373ffffffffffffffffffffffffffffffffffffffff16021790555050505061017e565b60008151905061009881610150565b92915050565b6000815190506100ad81610167565b92915050565b6000806000606084860312156100c857600080fd5b60006100d686828701610089565b93505060206100e78682870161009e565b92505060406100f88682870161009e565b9150509250925092565b600061010d82610126565b9050919050565b600061011f82610102565b9050919050565b600073ffffffffffffffffffffffffffffffffffffffff82169050919050565b6000819050919050565b61015981610114565b811461016457600080fd5b50565b61017081610146565b811461017b57600080fd5b50565b6105dc8061018d6000396000f3fe6080604052600436106100385760003560e01c80632986c0e51461024e5780633c8da5881461027957806389794d00146102a45761023f565b3661023f576000805414610081576040517f08c379a0000000000000000000000000000000000000000000000000000000008152600401610078906103c1565b60405180910390fd5b34600154146100c5576040517f08c379a00000000000000000000000000000000000000000000000000000000081526004016100bc906103a1565b60405180910390fd5b346000808282546100d69190610443565b925050819055506000600360009054906101000a900473ffffffffffffffffffffffffffffffffffffffff1673ffffffffffffffffffffffffffffffffffffffff163460025460405160240161012c9190610401565b6040516020818303038152906040527f800fb83f000000000000000000000000000000000000000000000000000000007bffffffffffffffffffffffffffffffffffffffffffffffffffffffff19166020820180517bffffffffffffffffffffffffffffffffffffffffffffffffffffffff83818316178352505050506040516101b6919061038a565b60006040518083038185875af1925050503d80600081146101f3576040519150601f19603f3d011682016040523d82523d6000602084013e6101f8565b606091505b505090508061023c576040517f08c379a0000000000000000000000000000000000000000000000000000000008152600401610233906103e1565b60405180910390fd5b50005b34801561024b57600080fd5b50005b34801561025a57600080fd5b506102636102cf565b6040516102709190610401565b60405180910390f35b34801561028557600080fd5b5061028e6102d5565b60405161029b9190610401565b60405180910390f35b3480156102b057600080fd5b506102b96102db565b6040516102c69190610401565b60405180910390f35b60025481565b60015481565b60005481565b60006102ec8261041c565b6102f68185610427565b93506103068185602086016104a3565b80840191505092915050565b600061031f601983610432565b915061032a82610505565b602082019050919050565b6000610342601983610432565b915061034d8261052e565b602082019050919050565b6000610365602d83610432565b915061037082610557565b604082019050919050565b61038481610499565b82525050565b600061039682846102e1565b915081905092915050565b600060208201905081810360008301526103ba81610312565b9050919050565b600060208201905081810360008301526103da81610335565b9050919050565b600060208201905081810360008301526103fa81610358565b9050919050565b6000602082019050610416600083018461037b565b92915050565b600081519050919050565b600081905092915050565b600082825260208201905092915050565b600061044e82610499565b915061045983610499565b9250827fffffffffffffffffffffffffffffffffffffffffffffffffffffffffffffffff0382111561048e5761048d6104d6565b5b828201905092915050565b6000819050919050565b60005b838110156104c15780820151818401526020810190506104a6565b838111156104d0576000848401525b50505050565b7f4e487b7100000000000000000000000000000000000000000000000000000000600052601160045260246000fd5b7f6f6e6c792066756c6c207061796d656e7420616c6c6f77656400000000000000600082015250565b7f74686973206974656d206973207061696420616c726561647900000000000000600082015250565b7f546865207472616e73616374696f6e20776173206e6f7420737563636573736660008201527f756c2c2043616e63656c696e670000000000000000000000000000000000000060208201525056fea26469706673582212207a470d781b064f44cc4bb154151af77008d696163183075826287b24c17c2c4e64736f6c63430008010033a26469706673582212204ab1efd31f89e8f1f4e800141c48c668773c9588bccb51a2289c8139c9f2c9b964736f6c63430008010033",
  "immutableReferences": {},
  "source": "pragma solidity ^0.8.0;\nimport \"./Item.sol\";\nimport \"./Ownable.sol\";\n//import \"https://github.com/OpenZeppelin/openzeppelin-contracts/blob/master/contracts/access/Ownable.sol\";\n\n\ncontract ItemManager is Ownable {\n\nenum SupplyChainState{Created, Paid, Delivered }\n struct S_Item{\n     Item _item;\n     string identifier;\n     uint itemPrice;\n     SupplyChainState state;\n }\n    mapping(uint=> S_Item) public items;\n    uint _itemIndex;\n    event SupplyChainStep(uint itemindex, uint _step, address itemAddress);\n\n    function createItem(string memory name, uint itemPrice) public {\n        Item item= new Item(this, itemPrice, _itemIndex);\n        items[_itemIndex]._item= item;\n\n        items[_itemIndex].identifier = name;\n        items[_itemIndex].itemPrice= itemPrice;\n        items[_itemIndex].state= SupplyChainState.Created;\n        emit SupplyChainStep(_itemIndex, uint(items[_itemIndex].state), address(item));\n        _itemIndex++;\n\n    }\n\n    function triggerPayment(uint itemIndex) public payable {\n        require( items[itemIndex].itemPrice == msg.value ,\"Only full Payments accepted\");\n        require(items[itemIndex].state == SupplyChainState.Created , \"Item is furthur in the chain\");\n        items[itemIndex].state= SupplyChainState.Paid;\n\n        emit SupplyChainStep(itemIndex, uint(items[itemIndex].state), address(items[itemIndex]._item));\n\n\n    }\n    function triggerDelivery(uint itemIndex) public onlyOwner {\n        require(items[itemIndex].state == SupplyChainState.Paid , \"Item is furthur in the chain\");\n        items[itemIndex].state= SupplyChainState.Delivered;\n\n        emit SupplyChainStep(itemIndex, uint(items[itemIndex].state),address(items[itemIndex]._item));\n\n    }\n\n}",
  "sourcePath": "/Users/a1234/project1/contracts/ItemManager.sol",
  "compiler": {
    "name": "solc",
    "version": "0.8.1+commit.df193b15.Emscripten.clang"
  },
  "schemaVersion": "3.4.3",
  "updatedAt": "2022-03-09T11:08:00.934Z",
  "networkType": "ethereum",
  "devdoc": {
    "kind": "dev",
    "methods": {},
    "version": 1
  },
  "userdoc": {
    "kind": "user",
    "methods": {},
    "version": 1
  }
}